{
  "_format": "hh-sol-artifact-1",
  "contractName": "Kochi",
  "sourceName": "contracts/tokens/Kochi.sol",
  "abi": [
    {
      "inputs": [
        {
          "internalType": "uint256",
          "name": "cap",
          "type": "uint256"
        },
        {
          "internalType": "uint256",
          "name": "_blockReward",
          "type": "uint256"
        }
      ],
      "stateMutability": "nonpayable",
      "type": "constructor"
    },
    {
      "anonymous": false,
      "inputs": [
        {
          "indexed": true,
          "internalType": "address",
          "name": "owner",
          "type": "address"
        },
        {
          "indexed": true,
          "internalType": "address",
          "name": "spender",
          "type": "address"
        },
        {
          "indexed": false,
          "internalType": "uint256",
          "name": "value",
          "type": "uint256"
        }
      ],
      "name": "Approval",
      "type": "event"
    },
    {
      "anonymous": false,
      "inputs": [
        {
          "indexed": true,
          "internalType": "address",
          "name": "from",
          "type": "address"
        },
        {
          "indexed": true,
          "internalType": "address",
          "name": "to",
          "type": "address"
        },
        {
          "indexed": false,
          "internalType": "uint256",
          "name": "value",
          "type": "uint256"
        }
      ],
      "name": "Transfer",
      "type": "event"
    },
    {
      "inputs": [
        {
          "internalType": "address",
          "name": "owner",
          "type": "address"
        },
        {
          "internalType": "address",
          "name": "spender",
          "type": "address"
        }
      ],
      "name": "allowance",
      "outputs": [
        {
          "internalType": "uint256",
          "name": "",
          "type": "uint256"
        }
      ],
      "stateMutability": "view",
      "type": "function"
    },
    {
      "inputs": [
        {
          "internalType": "address",
          "name": "spender",
          "type": "address"
        },
        {
          "internalType": "uint256",
          "name": "amount",
          "type": "uint256"
        }
      ],
      "name": "approve",
      "outputs": [
        {
          "internalType": "bool",
          "name": "",
          "type": "bool"
        }
      ],
      "stateMutability": "nonpayable",
      "type": "function"
    },
    {
      "inputs": [
        {
          "internalType": "address",
          "name": "account",
          "type": "address"
        }
      ],
      "name": "balanceOf",
      "outputs": [
        {
          "internalType": "uint256",
          "name": "",
          "type": "uint256"
        }
      ],
      "stateMutability": "view",
      "type": "function"
    },
    {
      "inputs": [],
      "name": "blockReward",
      "outputs": [
        {
          "internalType": "uint256",
          "name": "",
          "type": "uint256"
        }
      ],
      "stateMutability": "view",
      "type": "function"
    },
    {
      "inputs": [
        {
          "internalType": "uint256",
          "name": "amount",
          "type": "uint256"
        }
      ],
      "name": "burn",
      "outputs": [],
      "stateMutability": "nonpayable",
      "type": "function"
    },
    {
      "inputs": [
        {
          "internalType": "address",
          "name": "account",
          "type": "address"
        },
        {
          "internalType": "uint256",
          "name": "amount",
          "type": "uint256"
        }
      ],
      "name": "burnFrom",
      "outputs": [],
      "stateMutability": "nonpayable",
      "type": "function"
    },
    {
      "inputs": [],
      "name": "cap",
      "outputs": [
        {
          "internalType": "uint256",
          "name": "",
          "type": "uint256"
        }
      ],
      "stateMutability": "view",
      "type": "function"
    },
    {
      "inputs": [],
      "name": "decimals",
      "outputs": [
        {
          "internalType": "uint8",
          "name": "",
          "type": "uint8"
        }
      ],
      "stateMutability": "view",
      "type": "function"
    },
    {
      "inputs": [
        {
          "internalType": "address",
          "name": "spender",
          "type": "address"
        },
        {
          "internalType": "uint256",
          "name": "subtractedValue",
          "type": "uint256"
        }
      ],
      "name": "decreaseAllowance",
      "outputs": [
        {
          "internalType": "bool",
          "name": "",
          "type": "bool"
        }
      ],
      "stateMutability": "nonpayable",
      "type": "function"
    },
    {
      "inputs": [],
      "name": "destroy",
      "outputs": [],
      "stateMutability": "nonpayable",
      "type": "function"
    },
    {
      "inputs": [
        {
          "internalType": "address",
          "name": "spender",
          "type": "address"
        },
        {
          "internalType": "uint256",
          "name": "addedValue",
          "type": "uint256"
        }
      ],
      "name": "increaseAllowance",
      "outputs": [
        {
          "internalType": "bool",
          "name": "",
          "type": "bool"
        }
      ],
      "stateMutability": "nonpayable",
      "type": "function"
    },
    {
      "inputs": [],
      "name": "name",
      "outputs": [
        {
          "internalType": "string",
          "name": "",
          "type": "string"
        }
      ],
      "stateMutability": "view",
      "type": "function"
    },
    {
      "inputs": [],
      "name": "owner",
      "outputs": [
        {
          "internalType": "address payable",
          "name": "",
          "type": "address"
        }
      ],
      "stateMutability": "view",
      "type": "function"
    },
    {
      "inputs": [
        {
          "internalType": "uint256",
          "name": "amount",
          "type": "uint256"
        }
      ],
      "name": "setBlockReward",
      "outputs": [],
      "stateMutability": "nonpayable",
      "type": "function"
    },
    {
      "inputs": [],
      "name": "symbol",
      "outputs": [
        {
          "internalType": "string",
          "name": "",
          "type": "string"
        }
      ],
      "stateMutability": "view",
      "type": "function"
    },
    {
      "inputs": [],
      "name": "totalSupply",
      "outputs": [
        {
          "internalType": "uint256",
          "name": "",
          "type": "uint256"
        }
      ],
      "stateMutability": "view",
      "type": "function"
    },
    {
      "inputs": [
        {
          "internalType": "address",
          "name": "to",
          "type": "address"
        },
        {
          "internalType": "uint256",
          "name": "amount",
          "type": "uint256"
        }
      ],
      "name": "transfer",
      "outputs": [
        {
          "internalType": "bool",
          "name": "",
          "type": "bool"
        }
      ],
      "stateMutability": "nonpayable",
      "type": "function"
    },
    {
      "inputs": [
        {
          "internalType": "address",
          "name": "from",
          "type": "address"
        },
        {
          "internalType": "address",
          "name": "to",
          "type": "address"
        },
        {
          "internalType": "uint256",
          "name": "amount",
          "type": "uint256"
        }
      ],
      "name": "transferFrom",
      "outputs": [
        {
          "internalType": "bool",
          "name": "",
          "type": "bool"
        }
      ],
      "stateMutability": "nonpayable",
      "type": "function"
    }
  ],
  "bytecode": "0x60c06040523480156200001157600080fd5b5060405162002c7b38038062002c7b8339818101604052810190620000379190620005d3565b62000047620001ef60201b60201c565b600a620000559190620007aa565b82620000629190620007fb565b6040518060400160405280600581526020017f4b6f6368690000000000000000000000000000000000000000000000000000008152506040518060400160405280600281526020017f4b430000000000000000000000000000000000000000000000000000000000008152508160039081620000df919062000ab6565b508060049081620000f1919062000ab6565b505050600081116200013a576040517f08c379a0000000000000000000000000000000000000000000000000000000008152600401620001319062000bfe565b60405180910390fd5b8060808181525050503373ffffffffffffffffffffffffffffffffffffffff1660a08173ffffffffffffffffffffffffffffffffffffffff1681525050620001b660a0516200018e620001ef60201b60201c565b600a6200019c9190620007aa565b6046620001aa9190620007fb565b620001f860201b60201c565b620001c6620001ef60201b60201c565b600a620001d49190620007aa565b81620001e19190620007fb565b600581905550505062000d6d565b60006012905090565b620002086200028960201b60201c565b816200021e6200029360201b620004561760201c565b6200022a919062000c20565b11156200026e576040517f08c379a0000000000000000000000000000000000000000000000000000000008152600401620002659062000cab565b60405180910390fd5b6200028582826200029d60201b620008c71760201c565b5050565b6000608051905090565b6000600254905090565b620002ad6200028960201b60201c565b81620002c36200029360201b620004561760201c565b620002cf919062000c20565b111562000313576040517f08c379a00000000000000000000000000000000000000000000000000000000081526004016200030a9062000cab565b60405180910390fd5b6200032a82826200032e60201b620009311760201c565b5050565b600073ffffffffffffffffffffffffffffffffffffffff168273ffffffffffffffffffffffffffffffffffffffff1603620003a0576040517f08c379a0000000000000000000000000000000000000000000000000000000008152600401620003979062000d1d565b60405180910390fd5b620003b4600083836200049b60201b60201c565b8060026000828254620003c8919062000c20565b92505081905550806000808473ffffffffffffffffffffffffffffffffffffffff1673ffffffffffffffffffffffffffffffffffffffff168152602001908152602001600020600082825401925050819055508173ffffffffffffffffffffffffffffffffffffffff16600073ffffffffffffffffffffffffffffffffffffffff167fddf252ad1be2c89b69c2b068fc378daa952ba7f163c4a11628f55a4df523b3ef836040516200047b919062000d50565b60405180910390a362000497600083836200057360201b60201c565b5050565b600073ffffffffffffffffffffffffffffffffffffffff168373ffffffffffffffffffffffffffffffffffffffff16141580156200050557504173ffffffffffffffffffffffffffffffffffffffff168273ffffffffffffffffffffffffffffffffffffffff1614155b80156200053f5750600073ffffffffffffffffffffffffffffffffffffffff164173ffffffffffffffffffffffffffffffffffffffff1614155b156200055657620005556200057860201b60201c565b5b6200056e8383836200058e60201b62000a871760201c565b505050565b505050565b6200058c41600554620001f860201b60201c565b565b505050565b600080fd5b6000819050919050565b620005ad8162000598565b8114620005b957600080fd5b50565b600081519050620005cd81620005a2565b92915050565b60008060408385031215620005ed57620005ec62000593565b5b6000620005fd85828601620005bc565b92505060206200061085828601620005bc565b9150509250929050565b7f4e487b7100000000000000000000000000000000000000000000000000000000600052601160045260246000fd5b60008160011c9050919050565b6000808291508390505b6001851115620006a85780860481111562000680576200067f6200061a565b5b6001851615620006905780820291505b8081029050620006a08562000649565b945062000660565b94509492505050565b600082620006c3576001905062000796565b81620006d3576000905062000796565b8160018114620006ec5760028114620006f7576200072d565b600191505062000796565b60ff8411156200070c576200070b6200061a565b5b8360020a9150848211156200072657620007256200061a565b5b5062000796565b5060208310610133831016604e8410600b8410161715620007675782820a9050838111156200076157620007606200061a565b5b62000796565b62000776848484600162000656565b9250905081840481111562000790576200078f6200061a565b5b81810290505b9392505050565b600060ff82169050919050565b6000620007b78262000598565b9150620007c4836200079d565b9250620007f37fffffffffffffffffffffffffffffffffffffffffffffffffffffffffffffffff8484620006b1565b905092915050565b6000620008088262000598565b9150620008158362000598565b9250828202620008258162000598565b915082820484148315176200083f576200083e6200061a565b5b5092915050565b600081519050919050565b7f4e487b7100000000000000000000000000000000000000000000000000000000600052604160045260246000fd5b7f4e487b7100000000000000000000000000000000000000000000000000000000600052602260045260246000fd5b60006002820490506001821680620008c857607f821691505b602082108103620008de57620008dd62000880565b5b50919050565b60008190508160005260206000209050919050565b60006020601f8301049050919050565b600082821b905092915050565b600060088302620009487fffffffffffffffffffffffffffffffffffffffffffffffffffffffffffffffff8262000909565b62000954868362000909565b95508019841693508086168417925050509392505050565b6000819050919050565b600062000997620009916200098b8462000598565b6200096c565b62000598565b9050919050565b6000819050919050565b620009b38362000976565b620009cb620009c2826200099e565b84845462000916565b825550505050565b600090565b620009e2620009d3565b620009ef818484620009a8565b505050565b5b8181101562000a175762000a0b600082620009d8565b600181019050620009f5565b5050565b601f82111562000a665762000a3081620008e4565b62000a3b84620008f9565b8101602085101562000a4b578190505b62000a6362000a5a85620008f9565b830182620009f4565b50505b505050565b600082821c905092915050565b600062000a8b6000198460080262000a6b565b1980831691505092915050565b600062000aa6838362000a78565b9150826002028217905092915050565b62000ac18262000846565b67ffffffffffffffff81111562000add5762000adc62000851565b5b62000ae98254620008af565b62000af682828562000a1b565b600060209050601f83116001811462000b2e576000841562000b19578287015190505b62000b25858262000a98565b86555062000b95565b601f19841662000b3e86620008e4565b60005b8281101562000b685784890151825560018201915060208501945060208101905062000b41565b8683101562000b88578489015162000b84601f89168262000a78565b8355505b6001600288020188555050505b505050505050565b600082825260208201905092915050565b7f45524332304361707065643a2063617020697320300000000000000000000000600082015250565b600062000be660158362000b9d565b915062000bf38262000bae565b602082019050919050565b6000602082019050818103600083015262000c198162000bd7565b9050919050565b600062000c2d8262000598565b915062000c3a8362000598565b925082820190508082111562000c555762000c546200061a565b5b92915050565b7f45524332304361707065643a2063617020657863656564656400000000000000600082015250565b600062000c9360198362000b9d565b915062000ca08262000c5b565b602082019050919050565b6000602082019050818103600083015262000cc68162000c84565b9050919050565b7f45524332303a206d696e7420746f20746865207a65726f206164647265737300600082015250565b600062000d05601f8362000b9d565b915062000d128262000ccd565b602082019050919050565b6000602082019050818103600083015262000d388162000cf6565b9050919050565b62000d4a8162000598565b82525050565b600060208201905062000d67600083018462000d3f565b92915050565b60805160a051611ed362000da8600039600081816104620152818161062b015281816106b901526106f2015260006105520152611ed36000f3fe608060405234801561001057600080fd5b50600436106101165760003560e01c806342966c68116100a25780638da5cb5b116100715780638da5cb5b146102cf57806395d89b41146102ed578063a457c2d71461030b578063a9059cbb1461033b578063dd62ed3e1461036b57610116565b806342966c681461025d57806370a082311461027957806379cc6790146102a957806383197ef0146102c557610116565b80631a18e707116100e95780631a18e707146101a557806323b872dd146101c1578063313ce567146101f1578063355274ea1461020f578063395093511461022d57610116565b806306fdde031461011b578063095ea7b3146101395780630ac168a11461016957806318160ddd14610187575b600080fd5b61012361039b565b60405161013091906112f9565b60405180910390f35b610153600480360381019061014e91906113b4565b61042d565b604051610160919061140f565b60405180910390f35b610171610450565b60405161017e9190611439565b60405180910390f35b61018f610456565b60405161019c9190611439565b60405180910390f35b6101bf60048036038101906101ba9190611454565b610460565b005b6101db60048036038101906101d69190611481565b610516565b6040516101e8919061140f565b60405180910390f35b6101f9610545565b60405161020691906114f0565b60405180910390f35b61021761054e565b6040516102249190611439565b60405180910390f35b610247600480360381019061024291906113b4565b610576565b604051610254919061140f565b60405180910390f35b61027760048036038101906102729190611454565b6105ad565b005b610293600480360381019061028e919061150b565b6105c1565b6040516102a09190611439565b60405180910390f35b6102c360048036038101906102be91906113b4565b610609565b005b6102cd610629565b005b6102d76106f0565b6040516102e49190611559565b60405180910390f35b6102f5610714565b60405161030291906112f9565b60405180910390f35b610325600480360381019061032091906113b4565b6107a6565b604051610332919061140f565b60405180910390f35b610355600480360381019061035091906113b4565b61081d565b604051610362919061140f565b60405180910390f35b61038560048036038101906103809190611574565b610840565b6040516103929190611439565b60405180910390f35b6060600380546103aa906115e3565b80601f01602080910402602001604051908101604052809291908181526020018280546103d6906115e3565b80156104235780601f106103f857610100808354040283529160200191610423565b820191906000526020600020905b81548152906001019060200180831161040657829003601f168201915b5050505050905090565b600080610438610a8c565b9050610445818585610a94565b600191505092915050565b60055481565b6000600254905090565b7f000000000000000000000000000000000000000000000000000000000000000073ffffffffffffffffffffffffffffffffffffffff163373ffffffffffffffffffffffffffffffffffffffff16146104ee576040517f08c379a00000000000000000000000000000000000000000000000000000000081526004016104e590611686565b60405180910390fd5b6104f6610545565b600a6105029190611808565b8161050d9190611853565b60058190555050565b600080610521610a8c565b905061052e858285610c5d565b610539858585610ce9565b60019150509392505050565b60006012905090565b60007f0000000000000000000000000000000000000000000000000000000000000000905090565b600080610581610a8c565b90506105a28185856105938589610840565b61059d9190611895565b610a94565b600191505092915050565b6105be6105b8610a8c565b82610f5f565b50565b60008060008373ffffffffffffffffffffffffffffffffffffffff1673ffffffffffffffffffffffffffffffffffffffff168152602001908152602001600020549050919050565b61061b82610615610a8c565b83610c5d565b6106258282610f5f565b5050565b7f000000000000000000000000000000000000000000000000000000000000000073ffffffffffffffffffffffffffffffffffffffff163373ffffffffffffffffffffffffffffffffffffffff16146106b7576040517f08c379a00000000000000000000000000000000000000000000000000000000081526004016106ae90611686565b60405180910390fd5b7f000000000000000000000000000000000000000000000000000000000000000073ffffffffffffffffffffffffffffffffffffffff16ff5b7f000000000000000000000000000000000000000000000000000000000000000081565b606060048054610723906115e3565b80601f016020809104026020016040519081016040528092919081815260200182805461074f906115e3565b801561079c5780601f106107715761010080835404028352916020019161079c565b820191906000526020600020905b81548152906001019060200180831161077f57829003601f168201915b5050505050905090565b6000806107b1610a8c565b905060006107bf8286610840565b905083811015610804576040517f08c379a00000000000000000000000000000000000000000000000000000000081526004016107fb9061193b565b60405180910390fd5b6108118286868403610a94565b60019250505092915050565b600080610828610a8c565b9050610835818585610ce9565b600191505092915050565b6000600160008473ffffffffffffffffffffffffffffffffffffffff1673ffffffffffffffffffffffffffffffffffffffff16815260200190815260200160002060008373ffffffffffffffffffffffffffffffffffffffff1673ffffffffffffffffffffffffffffffffffffffff16815260200190815260200160002054905092915050565b6108cf61054e565b816108d8610456565b6108e29190611895565b1115610923576040517f08c379a000000000000000000000000000000000000000000000000000000000815260040161091a906119a7565b60405180910390fd5b61092d8282610931565b5050565b600073ffffffffffffffffffffffffffffffffffffffff168273ffffffffffffffffffffffffffffffffffffffff16036109a0576040517f08c379a000000000000000000000000000000000000000000000000000000000815260040161099790611a13565b60405180910390fd5b6109ac6000838361112c565b80600260008282546109be9190611895565b92505081905550806000808473ffffffffffffffffffffffffffffffffffffffff1673ffffffffffffffffffffffffffffffffffffffff168152602001908152602001600020600082825401925050819055508173ffffffffffffffffffffffffffffffffffffffff16600073ffffffffffffffffffffffffffffffffffffffff167fddf252ad1be2c89b69c2b068fc378daa952ba7f163c4a11628f55a4df523b3ef83604051610a6f9190611439565b60405180910390a3610a83600083836111ec565b5050565b505050565b600033905090565b600073ffffffffffffffffffffffffffffffffffffffff168373ffffffffffffffffffffffffffffffffffffffff1603610b03576040517f08c379a0000000000000000000000000000000000000000000000000000000008152600401610afa90611aa5565b60405180910390fd5b600073ffffffffffffffffffffffffffffffffffffffff168273ffffffffffffffffffffffffffffffffffffffff1603610b72576040517f08c379a0000000000000000000000000000000000000000000000000000000008152600401610b6990611b37565b60405180910390fd5b80600160008573ffffffffffffffffffffffffffffffffffffffff1673ffffffffffffffffffffffffffffffffffffffff16815260200190815260200160002060008473ffffffffffffffffffffffffffffffffffffffff1673ffffffffffffffffffffffffffffffffffffffff168152602001908152602001600020819055508173ffffffffffffffffffffffffffffffffffffffff168373ffffffffffffffffffffffffffffffffffffffff167f8c5be1e5ebec7d5bd14f71427d1e84f3dd0314c0f7b2291e5b200ac8c7c3b92583604051610c509190611439565b60405180910390a3505050565b6000610c698484610840565b90507fffffffffffffffffffffffffffffffffffffffffffffffffffffffffffffffff8114610ce35781811015610cd5576040517f08c379a0000000000000000000000000000000000000000000000000000000008152600401610ccc90611ba3565b60405180910390fd5b610ce28484848403610a94565b5b50505050565b600073ffffffffffffffffffffffffffffffffffffffff168373ffffffffffffffffffffffffffffffffffffffff1603610d58576040517f08c379a0000000000000000000000000000000000000000000000000000000008152600401610d4f90611c35565b60405180910390fd5b600073ffffffffffffffffffffffffffffffffffffffff168273ffffffffffffffffffffffffffffffffffffffff1603610dc7576040517f08c379a0000000000000000000000000000000000000000000000000000000008152600401610dbe90611cc7565b60405180910390fd5b610dd283838361112c565b60008060008573ffffffffffffffffffffffffffffffffffffffff1673ffffffffffffffffffffffffffffffffffffffff16815260200190815260200160002054905081811015610e58576040517f08c379a0000000000000000000000000000000000000000000000000000000008152600401610e4f90611d59565b60405180910390fd5b8181036000808673ffffffffffffffffffffffffffffffffffffffff1673ffffffffffffffffffffffffffffffffffffffff16815260200190815260200160002081905550816000808573ffffffffffffffffffffffffffffffffffffffff1673ffffffffffffffffffffffffffffffffffffffff168152602001908152602001600020600082825401925050819055508273ffffffffffffffffffffffffffffffffffffffff168473ffffffffffffffffffffffffffffffffffffffff167fddf252ad1be2c89b69c2b068fc378daa952ba7f163c4a11628f55a4df523b3ef84604051610f469190611439565b60405180910390a3610f598484846111ec565b50505050565b600073ffffffffffffffffffffffffffffffffffffffff168273ffffffffffffffffffffffffffffffffffffffff1603610fce576040517f08c379a0000000000000000000000000000000000000000000000000000000008152600401610fc590611deb565b60405180910390fd5b610fda8260008361112c565b60008060008473ffffffffffffffffffffffffffffffffffffffff1673ffffffffffffffffffffffffffffffffffffffff16815260200190815260200160002054905081811015611060576040517f08c379a000000000000000000000000000000000000000000000000000000000815260040161105790611e7d565b60405180910390fd5b8181036000808573ffffffffffffffffffffffffffffffffffffffff1673ffffffffffffffffffffffffffffffffffffffff1681526020019081526020016000208190555081600260008282540392505081905550600073ffffffffffffffffffffffffffffffffffffffff168373ffffffffffffffffffffffffffffffffffffffff167fddf252ad1be2c89b69c2b068fc378daa952ba7f163c4a11628f55a4df523b3ef846040516111139190611439565b60405180910390a3611127836000846111ec565b505050565b600073ffffffffffffffffffffffffffffffffffffffff168373ffffffffffffffffffffffffffffffffffffffff161415801561119557504173ffffffffffffffffffffffffffffffffffffffff168273ffffffffffffffffffffffffffffffffffffffff1614155b80156111ce5750600073ffffffffffffffffffffffffffffffffffffffff164173ffffffffffffffffffffffffffffffffffffffff1614155b156111dc576111db6111f1565b5b6111e7838383610a87565b505050565b505050565b6111fd416005546111ff565b565b61120761054e565b81611210610456565b61121a9190611895565b111561125b576040517f08c379a0000000000000000000000000000000000000000000000000000000008152600401611252906119a7565b60405180910390fd5b61126582826108c7565b5050565b600081519050919050565b600082825260208201905092915050565b60005b838110156112a3578082015181840152602081019050611288565b60008484015250505050565b6000601f19601f8301169050919050565b60006112cb82611269565b6112d58185611274565b93506112e5818560208601611285565b6112ee816112af565b840191505092915050565b6000602082019050818103600083015261131381846112c0565b905092915050565b600080fd5b600073ffffffffffffffffffffffffffffffffffffffff82169050919050565b600061134b82611320565b9050919050565b61135b81611340565b811461136657600080fd5b50565b60008135905061137881611352565b92915050565b6000819050919050565b6113918161137e565b811461139c57600080fd5b50565b6000813590506113ae81611388565b92915050565b600080604083850312156113cb576113ca61131b565b5b60006113d985828601611369565b92505060206113ea8582860161139f565b9150509250929050565b60008115159050919050565b611409816113f4565b82525050565b60006020820190506114246000830184611400565b92915050565b6114338161137e565b82525050565b600060208201905061144e600083018461142a565b92915050565b60006020828403121561146a5761146961131b565b5b60006114788482850161139f565b91505092915050565b60008060006060848603121561149a5761149961131b565b5b60006114a886828701611369565b93505060206114b986828701611369565b92505060406114ca8682870161139f565b9150509250925092565b600060ff82169050919050565b6114ea816114d4565b82525050565b600060208201905061150560008301846114e1565b92915050565b6000602082840312156115215761152061131b565b5b600061152f84828501611369565b91505092915050565b600061154382611320565b9050919050565b61155381611538565b82525050565b600060208201905061156e600083018461154a565b92915050565b6000806040838503121561158b5761158a61131b565b5b600061159985828601611369565b92505060206115aa85828601611369565b9150509250929050565b7f4e487b7100000000000000000000000000000000000000000000000000000000600052602260045260246000fd5b600060028204905060018216806115fb57607f821691505b60208210810361160e5761160d6115b4565b5b50919050565b7f4f6e6c79206f776e65722063616e2063616c6c20746869732066756e6374696f60008201527f6e00000000000000000000000000000000000000000000000000000000000000602082015250565b6000611670602183611274565b915061167b82611614565b604082019050919050565b6000602082019050818103600083015261169f81611663565b9050919050565b7f4e487b7100000000000000000000000000000000000000000000000000000000600052601160045260246000fd5b60008160011c9050919050565b6000808291508390505b600185111561172c57808604811115611708576117076116a6565b5b60018516156117175780820291505b8081029050611725856116d5565b94506116ec565b94509492505050565b6000826117455760019050611801565b816117535760009050611801565b81600181146117695760028114611773576117a2565b6001915050611801565b60ff841115611785576117846116a6565b5b8360020a91508482111561179c5761179b6116a6565b5b50611801565b5060208310610133831016604e8410600b84101617156117d75782820a9050838111156117d2576117d16116a6565b5b611801565b6117e484848460016116e2565b925090508184048111156117fb576117fa6116a6565b5b81810290505b9392505050565b60006118138261137e565b915061181e836114d4565b925061184b7fffffffffffffffffffffffffffffffffffffffffffffffffffffffffffffffff8484611735565b905092915050565b600061185e8261137e565b91506118698361137e565b92508282026118778161137e565b9150828204841483151761188e5761188d6116a6565b5b5092915050565b60006118a08261137e565b91506118ab8361137e565b92508282019050808211156118c3576118c26116a6565b5b92915050565b7f45524332303a2064656372656173656420616c6c6f77616e63652062656c6f7760008201527f207a65726f000000000000000000000000000000000000000000000000000000602082015250565b6000611925602583611274565b9150611930826118c9565b604082019050919050565b6000602082019050818103600083015261195481611918565b9050919050565b7f45524332304361707065643a2063617020657863656564656400000000000000600082015250565b6000611991601983611274565b915061199c8261195b565b602082019050919050565b600060208201905081810360008301526119c081611984565b9050919050565b7f45524332303a206d696e7420746f20746865207a65726f206164647265737300600082015250565b60006119fd601f83611274565b9150611a08826119c7565b602082019050919050565b60006020820190508181036000830152611a2c816119f0565b9050919050565b7f45524332303a20617070726f76652066726f6d20746865207a65726f2061646460008201527f7265737300000000000000000000000000000000000000000000000000000000602082015250565b6000611a8f602483611274565b9150611a9a82611a33565b604082019050919050565b60006020820190508181036000830152611abe81611a82565b9050919050565b7f45524332303a20617070726f766520746f20746865207a65726f20616464726560008201527f7373000000000000000000000000000000000000000000000000000000000000602082015250565b6000611b21602283611274565b9150611b2c82611ac5565b604082019050919050565b60006020820190508181036000830152611b5081611b14565b9050919050565b7f45524332303a20696e73756666696369656e7420616c6c6f77616e6365000000600082015250565b6000611b8d601d83611274565b9150611b9882611b57565b602082019050919050565b60006020820190508181036000830152611bbc81611b80565b9050919050565b7f45524332303a207472616e736665722066726f6d20746865207a65726f20616460008201527f6472657373000000000000000000000000000000000000000000000000000000602082015250565b6000611c1f602583611274565b9150611c2a82611bc3565b604082019050919050565b60006020820190508181036000830152611c4e81611c12565b9050919050565b7f45524332303a207472616e7366657220746f20746865207a65726f206164647260008201527f6573730000000000000000000000000000000000000000000000000000000000602082015250565b6000611cb1602383611274565b9150611cbc82611c55565b604082019050919050565b60006020820190508181036000830152611ce081611ca4565b9050919050565b7f45524332303a207472616e7366657220616d6f756e742065786365656473206260008201527f616c616e63650000000000000000000000000000000000000000000000000000602082015250565b6000611d43602683611274565b9150611d4e82611ce7565b604082019050919050565b60006020820190508181036000830152611d7281611d36565b9050919050565b7f45524332303a206275726e2066726f6d20746865207a65726f2061646472657360008201527f7300000000000000000000000000000000000000000000000000000000000000602082015250565b6000611dd5602183611274565b9150611de082611d79565b604082019050919050565b60006020820190508181036000830152611e0481611dc8565b9050919050565b7f45524332303a206275726e20616d6f756e7420657863656564732062616c616e60008201527f6365000000000000000000000000000000000000000000000000000000000000602082015250565b6000611e67602283611274565b9150611e7282611e0b565b604082019050919050565b60006020820190508181036000830152611e9681611e5a565b905091905056fea26469706673582212204df65cad81674fcf34c2ad3c7b503a89d2360ecc3b6fe6c3f7a3c11fd553c37e64736f6c63430008120033",
  "linkReferences": {},
  "deployedLinkReferences": {}
}