{
  "_format": "hh-sol-artifact-1",
  "contractName": "Bank",
  "sourceName": "contracts/bank/Bank.sol",
  "abi": [
    {
      "inputs": [
        {
          "internalType": "address",
          "name": "_owner",
          "type": "address"
        }
      ],
      "stateMutability": "payable",
      "type": "constructor"
    },
    {
      "stateMutability": "payable",
      "type": "fallback"
    },
    {
      "inputs": [
        {
          "internalType": "string",
          "name": "_email",
          "type": "string"
        },
        {
          "internalType": "string",
          "name": "_name",
          "type": "string"
        }
      ],
      "name": "createAccount",
      "outputs": [],
      "stateMutability": "payable",
      "type": "function"
    },
    {
      "inputs": [
        {
          "internalType": "address",
          "name": "_userAddress",
          "type": "address"
        }
      ],
      "name": "depositIntoAnotherAccount",
      "outputs": [],
      "stateMutability": "payable",
      "type": "function"
    },
    {
      "inputs": [],
      "name": "depositIntoMyAccount",
      "outputs": [],
      "stateMutability": "payable",
      "type": "function"
    },
    {
      "inputs": [],
      "name": "getAccountBalance",
      "outputs": [
        {
          "internalType": "uint256",
          "name": "",
          "type": "uint256"
        }
      ],
      "stateMutability": "view",
      "type": "function"
    },
    {
      "inputs": [],
      "name": "getTotalBankBalance",
      "outputs": [
        {
          "internalType": "uint256",
          "name": "",
          "type": "uint256"
        }
      ],
      "stateMutability": "view",
      "type": "function"
    },
    {
      "inputs": [],
      "name": "minimumDeposit",
      "outputs": [
        {
          "internalType": "uint256",
          "name": "",
          "type": "uint256"
        }
      ],
      "stateMutability": "view",
      "type": "function"
    },
    {
      "inputs": [],
      "name": "owner",
      "outputs": [
        {
          "internalType": "address",
          "name": "",
          "type": "address"
        }
      ],
      "stateMutability": "view",
      "type": "function"
    },
    {
      "inputs": [
        {
          "internalType": "address payable",
          "name": "_to",
          "type": "address"
        },
        {
          "internalType": "uint256",
          "name": "_amount",
          "type": "uint256"
        }
      ],
      "name": "withdraw",
      "outputs": [],
      "stateMutability": "nonpayable",
      "type": "function"
    },
    {
      "stateMutability": "payable",
      "type": "receive"
    }
  ],
  "bytecode": "0x60a0604052604051620016ed380380620016ed8339818101604052810190620000299190620000ce565b8073ffffffffffffffffffffffffffffffffffffffff1660808173ffffffffffffffffffffffffffffffffffffffff16815250505062000100565b600080fd5b600073ffffffffffffffffffffffffffffffffffffffff82169050919050565b6000620000968262000069565b9050919050565b620000a88162000089565b8114620000b457600080fd5b50565b600081519050620000c8816200009d565b92915050565b600060208284031215620000e757620000e662000064565b5b6000620000f784828501620000b7565b91505092915050565b6080516115ca620001236000396000818161034301526104bb01526115ca6000f3fe60806040526004361061007f5760003560e01c80638da5cb5b1161004e5780638da5cb5b14610125578063915defe114610150578063f3fef3a31461015a578063f873e4ad1461018357610086565b8063192892871461008857806338a2ca40146100a4578063636bfbab146100cf5780636896fabf146100fa57610086565b3661008657005b005b6100a2600480360381019061009d9190610bba565b61019f565b005b3480156100b057600080fd5b506100b961033f565b6040516100c69190610c4b565b60405180910390f35b3480156100db57600080fd5b506100e46103d5565b6040516100f19190610c4b565b60405180910390f35b34801561010657600080fd5b5061010f6103e0565b60405161011c9190610c4b565b60405180910390f35b34801561013157600080fd5b5061013a6104b9565b6040516101479190610ca7565b60405180910390f35b6101586104dd565b005b34801561016657600080fd5b50610181600480360381019061017c9190610d2c565b610577565b005b61019d60048036038101906101989190610d98565b61081a565b005b662386f26fc100003410156101e9576040517f08c379a00000000000000000000000000000000000000000000000000000000081526004016101e090610e48565b60405180910390fd5b60001515600160003373ffffffffffffffffffffffffffffffffffffffff1673ffffffffffffffffffffffffffffffffffffffff16815260200190815260200160002060030160009054906101000a900460ff1615151461027f576040517f08c379a000000000000000000000000000000000000000000000000000000000815260040161027690610eb4565b60405180910390fd5b604051806080016040528034815260200182815260200183815260200160011515815250600160003373ffffffffffffffffffffffffffffffffffffffff1673ffffffffffffffffffffffffffffffffffffffff16815260200190815260200160002060008201518160000155602082015181600101908161030191906110eb565b50604082015181600201908161031791906110eb565b5060608201518160030160006101000a81548160ff0219169083151502179055509050505050565b60007f000000000000000000000000000000000000000000000000000000000000000073ffffffffffffffffffffffffffffffffffffffff163373ffffffffffffffffffffffffffffffffffffffff16146103cf576040517f08c379a00000000000000000000000000000000000000000000000000000000081526004016103c69061122f565b60405180910390fd5b47905090565b662386f26fc1000081565b6000600160003373ffffffffffffffffffffffffffffffffffffffff1673ffffffffffffffffffffffffffffffffffffffff16815260200190815260200160002060030160009054906101000a900460ff16610471576040517f08c379a0000000000000000000000000000000000000000000000000000000008152600401610468906112c1565b60405180910390fd5b600160003373ffffffffffffffffffffffffffffffffffffffff1673ffffffffffffffffffffffffffffffffffffffff16815260200190815260200160002060000154905090565b7f000000000000000000000000000000000000000000000000000000000000000081565b600160003373ffffffffffffffffffffffffffffffffffffffff1673ffffffffffffffffffffffffffffffffffffffff16815260200190815260200160002060030160009054906101000a900460ff1661056c576040517f08c379a0000000000000000000000000000000000000000000000000000000008152600401610563906112c1565b60405180910390fd5b61057533610a04565b565b600160003373ffffffffffffffffffffffffffffffffffffffff1673ffffffffffffffffffffffffffffffffffffffff16815260200190815260200160002060030160009054906101000a900460ff16610606576040517f08c379a00000000000000000000000000000000000000000000000000000000081526004016105fd906112c1565b60405180910390fd5b818180600160008473ffffffffffffffffffffffffffffffffffffffff1673ffffffffffffffffffffffffffffffffffffffff168152602001908152602001600020600001541161068c576040517f08c379a00000000000000000000000000000000000000000000000000000000081526004016106839061132d565b60405180910390fd5b60008054906101000a900460ff16156106da576040517f08c379a00000000000000000000000000000000000000000000000000000000081526004016106d190611399565b60405180910390fd5b60016000806101000a81548160ff02191690831515021790555082600160008673ffffffffffffffffffffffffffffffffffffffff1673ffffffffffffffffffffffffffffffffffffffff168152602001908152602001600020600001600082825461074691906113e8565b9250508190555060008473ffffffffffffffffffffffffffffffffffffffff16846040516107739061144d565b60006040518083038185875af1925050503d80600081146107b0576040519150601f19603f3d011682016040523d82523d6000602084013e6107b5565b606091505b50509050806107f9576040517f08c379a00000000000000000000000000000000000000000000000000000000081526004016107f0906114ae565b60405180910390fd5b5060008060006101000a81548160ff02191690831515021790555050505050565b600160003373ffffffffffffffffffffffffffffffffffffffff1673ffffffffffffffffffffffffffffffffffffffff16815260200190815260200160002060030160009054906101000a900460ff166108a9576040517f08c379a00000000000000000000000000000000000000000000000000000000081526004016108a0906112c1565b60405180910390fd5b333480600160008473ffffffffffffffffffffffffffffffffffffffff1673ffffffffffffffffffffffffffffffffffffffff168152602001908152602001600020600001541161092f576040517f08c379a00000000000000000000000000000000000000000000000000000000081526004016109269061132d565b60405180910390fd5b3373ffffffffffffffffffffffffffffffffffffffff168373ffffffffffffffffffffffffffffffffffffffff160361099d576040517f08c379a000000000000000000000000000000000000000000000000000000000815260040161099490611540565b60405180910390fd5b6109a683610a04565b34600160003373ffffffffffffffffffffffffffffffffffffffff1673ffffffffffffffffffffffffffffffffffffffff16815260200190815260200160002060000160008282546109f891906113e8565b92505081905550505050565b34600160008373ffffffffffffffffffffffffffffffffffffffff1673ffffffffffffffffffffffffffffffffffffffff1681526020019081526020016000206000016000828254610a569190611560565b9250508190555050565b6000604051905090565b600080fd5b600080fd5b600080fd5b600080fd5b6000601f19601f8301169050919050565b7f4e487b7100000000000000000000000000000000000000000000000000000000600052604160045260246000fd5b610ac782610a7e565b810181811067ffffffffffffffff82111715610ae657610ae5610a8f565b5b80604052505050565b6000610af9610a60565b9050610b058282610abe565b919050565b600067ffffffffffffffff821115610b2557610b24610a8f565b5b610b2e82610a7e565b9050602081019050919050565b82818337600083830152505050565b6000610b5d610b5884610b0a565b610aef565b905082815260208101848484011115610b7957610b78610a79565b5b610b84848285610b3b565b509392505050565b600082601f830112610ba157610ba0610a74565b5b8135610bb1848260208601610b4a565b91505092915050565b60008060408385031215610bd157610bd0610a6a565b5b600083013567ffffffffffffffff811115610bef57610bee610a6f565b5b610bfb85828601610b8c565b925050602083013567ffffffffffffffff811115610c1c57610c1b610a6f565b5b610c2885828601610b8c565b9150509250929050565b6000819050919050565b610c4581610c32565b82525050565b6000602082019050610c606000830184610c3c565b92915050565b600073ffffffffffffffffffffffffffffffffffffffff82169050919050565b6000610c9182610c66565b9050919050565b610ca181610c86565b82525050565b6000602082019050610cbc6000830184610c98565b92915050565b6000610ccd82610c66565b9050919050565b610cdd81610cc2565b8114610ce857600080fd5b50565b600081359050610cfa81610cd4565b92915050565b610d0981610c32565b8114610d1457600080fd5b50565b600081359050610d2681610d00565b92915050565b60008060408385031215610d4357610d42610a6a565b5b6000610d5185828601610ceb565b9250506020610d6285828601610d17565b9150509250929050565b610d7581610c86565b8114610d8057600080fd5b50565b600081359050610d9281610d6c565b92915050565b600060208284031215610dae57610dad610a6a565b5b6000610dbc84828501610d83565b91505092915050565b600082825260208201905092915050565b7f54686520616d6f756e74206973206c657373207468616e20746865206d696d6960008201527f6e6d756d206465706f7369740000000000000000000000000000000000000000602082015250565b6000610e32602c83610dc5565b9150610e3d82610dd6565b604082019050919050565b60006020820190508181036000830152610e6181610e25565b9050919050565b7f54686973204163636f756e7420616c7265616479206578697374730000000000600082015250565b6000610e9e601b83610dc5565b9150610ea982610e68565b602082019050919050565b60006020820190508181036000830152610ecd81610e91565b9050919050565b600081519050919050565b7f4e487b7100000000000000000000000000000000000000000000000000000000600052602260045260246000fd5b60006002820490506001821680610f2657607f821691505b602082108103610f3957610f38610edf565b5b50919050565b60008190508160005260206000209050919050565b60006020601f8301049050919050565b600082821b905092915050565b600060088302610fa17fffffffffffffffffffffffffffffffffffffffffffffffffffffffffffffffff82610f64565b610fab8683610f64565b95508019841693508086168417925050509392505050565b6000819050919050565b6000610fe8610fe3610fde84610c32565b610fc3565b610c32565b9050919050565b6000819050919050565b61100283610fcd565b61101661100e82610fef565b848454610f71565b825550505050565b600090565b61102b61101e565b611036818484610ff9565b505050565b5b8181101561105a5761104f600082611023565b60018101905061103c565b5050565b601f82111561109f5761107081610f3f565b61107984610f54565b81016020851015611088578190505b61109c61109485610f54565b83018261103b565b50505b505050565b600082821c905092915050565b60006110c2600019846008026110a4565b1980831691505092915050565b60006110db83836110b1565b9150826002028217905092915050565b6110f482610ed4565b67ffffffffffffffff81111561110d5761110c610a8f565b5b6111178254610f0e565b61112282828561105e565b600060209050601f8311600181146111555760008415611143578287015190505b61114d85826110cf565b8655506111b5565b601f19841661116386610f3f565b60005b8281101561118b57848901518255600182019150602085019450602081019050611166565b868310156111a857848901516111a4601f8916826110b1565b8355505b6001600288020188555050505b505050505050565b7f4f6e6c79204f776e65722063616e2061636365737320746f74616c2062616e6b60008201527f2062616c616e6365000000000000000000000000000000000000000000000000602082015250565b6000611219602883610dc5565b9150611224826111bd565b604082019050919050565b600060208201905081810360008301526112488161120c565b9050919050565b7f54686973206164647265737320646f6573206e6f74206861766520616e20616360008201527f636f756e74000000000000000000000000000000000000000000000000000000602082015250565b60006112ab602583610dc5565b91506112b68261124f565b604082019050919050565b600060208201905081810360008301526112da8161129e565b9050919050565b7f496e73756666696369656e742066756e64730000000000000000000000000000600082015250565b6000611317601283610dc5565b9150611322826112e1565b602082019050919050565b600060208201905081810360008301526113468161130a565b9050919050565b7f4e6f207265656e7472616e637900000000000000000000000000000000000000600082015250565b6000611383600d83610dc5565b915061138e8261134d565b602082019050919050565b600060208201905081810360008301526113b281611376565b9050919050565b7f4e487b7100000000000000000000000000000000000000000000000000000000600052601160045260246000fd5b60006113f382610c32565b91506113fe83610c32565b9250828203905081811115611416576114156113b9565b5b92915050565b600081905092915050565b50565b600061143760008361141c565b915061144282611427565b600082019050919050565b60006114588261142a565b9150819050919050565b7f5472616e73666572204661696c65640000000000000000000000000000000000600082015250565b6000611498600f83610dc5565b91506114a382611462565b602082019050919050565b600060208201905081810360008301526114c78161148b565b9050919050565b7f43616e6e6f74206465706f73697420696e746f20796f7572206f776e2061636360008201527f6f756e74207769746820746869732066756e6374696f6e000000000000000000602082015250565b600061152a603783610dc5565b9150611535826114ce565b604082019050919050565b600060208201905081810360008301526115598161151d565b9050919050565b600061156b82610c32565b915061157683610c32565b925082820190508082111561158e5761158d6113b9565b5b9291505056fea26469706673582212205e31d5c2918a2b410e6389e01612813190031fb9d8b4fd8eb20b1c8a0aea537764736f6c63430008120033",
  "linkReferences": {},
  "deployedLinkReferences": {}
}